:020000040800F2
:10000000787A0020AD02000823630008155D00081F
:1000100021630008810B00081D7500080000000026
:1000200000000000000000000000000071650008F2
:10003000410F0008000000002563000873650008F8
:10004000C7020008C7020008C7020008C70200086C
:10005000C7020008C7020008C7020008C70200085C
:10006000C7020008C7020008C7020008850B000885
:10007000910B00089D0B0008A90B0008C70200089F
:10008000C7020008C7020008C7020008C70200082C
:10009000C7020008C7020008C7020008C70200081C
:1000A000C7020008C7020008C7020008C70200080C
:1000B000C7020008C70200082D670008C702000831
:1000C000C7020008C7020008C7020008C7020008EC
:1000D000C702000815750008C7020008C70200081B
:1000E000C7020008C702000800000000C70200089D
:1000F000C7020008C7020008C7020008C7020008BC
:10010000C7020008C7020008C7020008C7020008AB
:10011000C7020008C7020008C7020008C70200089B
:10012000C7020008C7020008C7020008C70200088B
:10013000C7020008C7020008C7020008C70200087B
:1001400000000000000000000000000000000000AF
:10015000C7020008C7020008C7020008C70200085B
:10016000C7020008C7020008C7020008C70200084B
:10017000C7020008C7020008C7020008000000000C
:10018000C7020008C702000889680008C702000803
:10019000C7020008C7020008C7020008C70200081B
:1001A000C7020008C7020008C7020008C70200080B
:1001B000C7020008C7020008C7020008C7020008FB
:1001C000C7020008C7020008C7020008C7020008EB
:1001D000C7020008C7020008C7020008C7020008DB
:1001E000C7020008C7020008C7020008C7020008CB
:1001F000C7020008C7020008C7020008C7020008BB
:10020000C7020008C7020008C7020008C7020008AA
:10021000C7020008C7020008C7020008C70200089A
:10022000C7020008C7020008C7020008000000005B
:10023000C7020008C702000800000000C70200084B
:10024000C7020008C7020008C7020008C70200086A
:10025000C7020008C7020008C7020008C70200085A
:10026000C7020008C7020008C7020008C70200084A
:10027000C7020008C7020008C7020008000000000B
:10028000C7020008C7020008C702000800000000FB
:1002900000000000C7020008DFF80CD000F048FAA8
:1002A00000480047D5750008787A00200648804746
:1002B00006480047FEE7FEE7FEE7FEE7FEE7FEE74B
:1002C000FEE7FEE7FEE7FEE7796600089902000810
:1002D0002DE9F05F0546002092469B46884606467B
:1002E000814640241BE0284641464746224600F00E
:1002F00057F853465A46C01A914110D31146184632
:10030000224600F03EF82D1A67EB01084F462246C0
:100310000120002100F035F817EB00094E41201EA6
:10032000A4F10104DFDC484631462A464346BDE8D5
:10033000F09FD2B201E000F8012B491EFBD27047BA
:100340000022F6E710B513460A4604461946FFF7A1
:10035000F0FF204610BD30B50B460146002020229C
:10036000012409E021FA02F59D4205D303FA02F5C2
:10037000491B04FA02F52844151EA2F10102F1DC22
:1003800030BD202A04DB203A00FA02F10020704739
:100390009140C2F1200320FA03F3194390407047C3
:1003A000202A04DB203A21FA02F00021704721FACA
:1003B00002F3D040C2F12002914008431946704731
:1003C0002DE9FE4F804681EA0300C00F0C460090E5
:1003D00021F0004123F00045B8EB0200A94105D20D
:1003E0004046214690461C460B46024623F00040FC
:1003F000104347D0270DC7F30A00C3F30A510290F8
:10040000401A019040286BDAC3F3130040F4801BBC
:100410000098924620B10023D2EB030A63EB0B0B4A
:1004200001985946C0F140025046FFF7AAFF064620
:100430000D4650465946019A00F08CF910EB080021
:100440006141002487EA115284EAE7731A4340D0DD
:10045000009A62B3019A012A4FEA075215DC001B89
:1004600061EB02014FF0004202EA0752CDE900427F
:10047000001C41F5801132462B4600F08CF903B088
:10048000BDE8F08F40462146F9E7001B61EB020111
:10049000001C41F5801300185B412018A2F50017DD
:1004A00047EB030140EAD570B6196D4111E06D08C4
:1004B0004FEA360645EAC0754FEA0752001B61EB6A
:1004C0000201001C41F5801149084FEA3000001973
:1004D000514132462B4603B0BDE8F04F00F04CB915
:1004E0000098012240000023D0EB020263EBE0738E
:1004F000009821464FEAE074B8EB000061EB04017C
:10050000E9E783F000435BE781F0004158E72DE91C
:10051000FE4F81EA030404F0004421F000410094FE
:100520004FF0000B23F0004350EA01045ED052EA82
:1005300003045BD0C3F30A54C1F30A552C44A4F25C
:10054000F3340194A0FB0254C1F3130141F4801170
:10055000C3F3130343F4801301FB024400FB034E77
:10056000840A970A44EA815447EA8357A4FB076840
:1005700002958D0A05FB07854FEA932C04FB0C546A
:100580002705029D4FEA065847EA1637B5EB0805DE
:100590006EEB070C870E920E47EA811742EA831230
:1005A000A7FB0201B6EB0B0164EB00042B0D43EA41
:1005B0000C335E1844EB1C50DA465146E7FB02014F
:1005C000C5F313044FEA0B3343EA14534FEA0432E2
:1005D000019C43EA0603A4F10C040294009CCDE9BB
:1005E00000B400F0D8F803B0BDE8F08F0020014659
:1005F000F9E72DE9F04D81EA030404F0004B21F006
:10060000004514464FF0000A23F0004150EA05026D
:1006100020D054EA01021DD0C5F30A570246C5F3A3
:100620001303C1F31300C1F30A5640F4801543F4D9
:100630008013A7EB0608101BD64608F2FD3873EBB3
:10064000050002D308F1010801E092185B41B8F1FE
:10065000000F03DA00200146BDE8F08D00204FF4C2
:100660008011064684460EE0171B73EB050705D381
:10067000121B63EB050306434CEA010C49084FEAE1
:10068000300092185B4150EA0107EDD152EA0300B5
:1006900012D082EA040083EA0501084305D0101B4A
:1006A000AB4106D20122002306E000224FF00043B6
:1006B00002E06FF0010253101AEB06004CEB0851F8
:1006C00010EB0A0041EB0B01BDE8F04D00F054B80F
:1006D000C1F30A52C1F3130140F2FF3341F4801118
:1006E0009A4202DA00200146704740F233439A42B0
:1006F000A2F2334202DC5242FFF752BEFFF741BE84
:1007000030B5041E71F1000404DB4FF00044404298
:1007100064EB0101141E73F1000405DB1C464FF06D
:100720000043524263EB0403994208BF904230BD3C
:10073000064C074D06E0E06840F0010394E807002E
:1007400098471034AC42F6D3FFF7AAFD048A00089C
:10075000248A0008202A06DBCB17203A41FA02F04F
:1007600043EAE07306E041FA02F3D040C2F120020E
:10077000914008431946704710B5141E73F10004E8
:1007800008DA401C41F1000192185B411A4301D183
:1007900020F0010010BD2DE9F04D92469B4611B1AD
:1007A000B1FA81F202E0B0FA80F220329046FFF70F
:1007B000E8FD04460F4640EA0A0041EA0B015346B1
:1007C0005A46084313D0114653EA010019D0C8F124
:1007D00040025046FFF7E4FD05460E465046594696
:1007E0004246FFF7CEFD084305D0012004E0204635
:1007F0003946BDE8F08D0020054346EAE0762C43FB
:1008000037430A986305E40AA0EB08000022FD0ABA
:1008100044EA47540A3002D500200146E9E70105C1
:1008200010196941DDE9084500196941BDE8F04D3D
:10083000A2E70000B0B50446006840F48070344977
:10084000884214BF34483348006810F4403F0ED04B
:1008500004F0C4F861680546B1F5803F05D0B1F5F4
:10086000403F20D0B1F5003F1ED1080C18E04FF4F6
:100870000020002103F092F961680546A1F580226D
:100880004FEAB2420A2A0FD8DFE802F0060606064F
:100890000606383A3C3E40006FF0010000EA514045
:1008A000B5FBF0F500E0AD0802F0BAFE41F203013D
:1008B0008842206806D81C498D42816809D341F4DA
:1008C000807119E015498D4206D8816821F4407184
:1008D00012E021F480710FE011498D4202D8816845
:1008E000012204E00F498D42816803D8022262F39D
:1008F000092101E041F440718160B0BD2D09D3E7C9
:100900006D09D1E7AD09CFE7ED09CDE72D0ACBE7BA
:1009100000210240082302400863025821BCBE00A7
:1009200041787D0181F0FA02012D310170B5044654
:10093000006882688368DB0843EA9202D20754D0D9
:10094000C26892010FD5627D012A0CD1227D012A55
:1009500009D14FF0FF31264A03685B0607D4013105
:100960009142F9D337E0022904D1022111E040215C
:10097000016001218268520707D58268920704D47A
:1009800082687C4B1A4010328260012901D1042612
:1009900011E08268120707D58268920704D4826842
:1009A000744B1A40203282600426022908BF0826B0
:1009B000032908BF0C2602F039FE0546206880682E
:1009C000304212D002F032FE401B0628F6D32068D7
:1009D00080683042F2D0606D40F010006065A06D1C
:1009E00040F00100A065012070BD002070BD00BF77
:1009F00000DC0C000146806B426D12F0500F426D1E
:100A000005D0D2060ED4C06CC26C0846104742F422
:100A10000071416501680A681207CA6804D4910729
:100A200013D107E000F0C4BF12F4406F0DD1C968C4
:100A300089040AD4416D21F480714165416DC90476
:100A400003D4416D41F00101416500F0DFBE806BD0
:100A5000416D41F040014165816D41F004018165C6
:100A600000F0A6BF806B00F0D7BE0000B0B50168F3
:100A70000446886880078A684FF0000027D412F087
:100A8000010224D0886800F00D00012816D1886882
:100A9000384A1040023088600320086002F0C6FD2A
:100AA000054620688068C00712D002F0BFFD401BD9
:100AB0000328F6D320688068C007F2D0606D40F04C
:100AC00010006065A06D40F00100A0650120B0BD80
:100AD0000020B0BDF8B5044600688168C90746D15A
:100AE000244E816806F17F02114209D0606D40F00A
:100AF00010006065A06D40F00100A065012037E0A6
:100B00008168314041F00101816002F08FFD1A4A95
:100B100002F58073216802F54075184F994208BFAD
:100B20002F46914208BF2F4699420A4604BF42F21F
:100B30000002C4F2020205468A42B86818BF10F0EB
:100B40001F0014D10868C00711D18868C00704D1FC
:100B50008868304040F00100886002F067FD401B6B
:100B600021680328EED30868C007EBD1BEE7002058
:100B700001B0F0BDC0FFFF7F0020024000630258BB
:100B8000FEE70000014801F055BE00BF4400002010
:100B9000014801F04FBE00BF64020020014801F08F
:100BA00049BE00BFDC020020014801F043BE00BF87
:100BB000540300200168CA4A914223D0C94A914295
:100BC0001CBFC94A91421DD0C84A91421CBFC84AA5
:100BD000914217D0C74A91421CBFC74A914211D0D7
:100BE000C64A91421CBFC64A91420BD0C54A9142A7
:100BF0001CBFC54A914205D0C44A91421CBFC44A99
:100C000091421AD180B56FF00F02DFF848C052FA56
:100C100081F21823B2FBF3F340F2FF3E21EA0E010A
:100C20005F2A03F007031CF80330C36588BF043153
:100C3000BDE88040816508467047B64A9142E1D0E0
:100C4000B64A9142DED0B44A9142DBD021F0FF0196
:100C5000F0E700BF988900080268B1498A421F493D
:100C60001CBFB04B9A4205D0AF4B9A421CBFAF4B52
:100C70009A4213D1D3B2A3F108021423B2FBF3F3C7
:100C800001F1800201EB830103F01F0301664FF0C5
:100C9000010C0CFA03F1C0E919217047A44B9A42E8
:100CA000E8D0A64B9A42E5D0A24B9A42E2D0A1F5F9
:100CB0005B7CD3B26245DED0A3F110011823B1FBF7
:100CC000F3F1084B03F1AA0C9A420B4688BF083394
:100CD000624528BF0B460249D2E700BF00580258C0
:100CE000000802400F04024001790139072988BF3A
:100CF000704702688A4B9A421CBF8A4B9A4205D0C1
:100D0000894B9A421CBF894B9A420BD18A000E4BE9
:100D10004FF0010C1A444033C2660CFA01F1C0E9ED
:100D20001C317047824B9A42F0D0844B9A42EDD0EE
:100D3000804B9A42EAD0804B9A424FEA8102E6D039
:100D4000004BE5E70009024000590258F0B5D0F821
:100D500000C0634CA445D0F858E03BD0614DAC4591
:100D60001CBF614DAC4535D0604DAC451CBF604DDE
:100D7000AC452FD05F4DAC451CBF5F4DAC4529D075
:100D80005E4DAC451CBF5E4DAC4523D05D4DAC45C2
:100D90001CBF5D4DAC451DD05C4DAC451CBF5C4DD2
:100DA000AC4517D05B4DAC451CBF5B4DAC4511D07D
:100DB0005A4DAC451CBF5A4DAC450BD0594DAC45B6
:100DC0001CBF594DAC4505D0584DAC451CBF584DC6
:100DD000AC456DD1C66ED0E91957002E6F6002D0B8
:100DE000D0E91C566E60A44529D03E4CA4451CBFDA
:100DF0003D4CA44523D03D4CA4451CBF3C4CA445D0
:100E00001DD03C4CA4451CBF3B4CA44517D03B4CCB
:100E1000A4451CBF3A4CA44511D03A4CA4451CBF74
:100E2000394CA4450BD0394CA4451CBF384CA445C3
:100E300005D0384CA4451CBF374CA4451CD1C46D0B
:100E40003F2504F01F04806805FA04F4CEF808403A
:100E5000DCF8007027F48027CCF800704028CCF82C
:100E6000043004D1CCF80820CCF80C10F0BDCCF83C
:100E70000810CCF80C20F0BD2F4CA4451CBF284C0A
:100E8000A4450BD0274CA4451CBF274CA44505D036
:100E9000264CA4451CBF264CA44516D1C46D012583
:100EA00004F01F04806805FA04F4CEF80440D5E786
:100EB000204DAC453FF48EAF1F4DAC453FF48AAF9B
:100EC0001E4DAC453FF486AFD5E71A4CA445E5D09E
:100ED0001A4CA445E2D0114CA445B0D0CBE700BFDA
:100EE000100002402800024040000240580002402A
:100EF0007000024088000240A0000240B80002409A
:100F000010040240280402404004024058040240F9
:100F10007004024088040240A0040240B804024069
:100F2000085402581C540258305402584454025871
:100F3000585402586C540258945402588054025821
:100F40007047EFF3108072B6FEE70000000000006B
:100F50002DE9F84F2DED067B7B4E8A467268804660
:100F60008A4201D1306846E012B1306807F034FCA3
:100F7000BAF1000FC6F804A000F0DA80012473492A
:100F800004FA0AF04510086000EE105A704830600C
:100F9000B8EEC00B9FED6A1B81EE000BB7EEC00BE5
:100FA000B7EEC08AB0EE480B06F042FCB7EEC09B2D
:100FB000B0EE480B06F094FCB7EEC00B3068B0EE14
:100FC000492A0146B1EE400AB0EE401A11E022EE85
:100FD000093A81ED002A22EE004A013481ED011A1E
:100FE000083101EE403A01EE094AB0EE432AB0EE74
:100FF000441AAC42EBDB0838CDF8008001904FF08A
:10100000010B52484FF000090068024667E051109A
:101010006FF0080322F0010603EAC207CD000022A8
:1010200043461AE05C1993ED000A93ED011A94ED22
:10103000002A94ED013A30EE424A324431EE435AEE
:1010400030EE020A31EE031A84ED004A84ED015AB3
:1010500083ED000A83ED011A3B448242E2DB4FF04C
:10106000010C019A32E002EBCB0292ED000A92ED04
:10107000011A4446634623E004EB050E94ED022A70
:1010800094ED033A9EED024A9EED035A32EE446A15
:10109000334433EE457A32EE042A60EE060A60EEFF
:1010A000071A33EE053A41EE470A41EE061ACEED35
:1010B000020ACEED031A84ED022A84ED033A3C4481
:1010C0008342D9DB0CF1010C08F108088C45CADB1E
:1010D0004FEA4B0BDDF8008009F101090A46D145C2
:1010E00095DB002120E00022002306E021FA03F72F
:1010F00007F0010747EA420201335345F6DB91420C
:1011000011DA08EBC20358F8327008EBC106D3F8C5
:1011100004C0746858F8315048F832505C6048F8A0
:101120003170C6F804C001318142DCDB012000E0EF
:101130000020BDEC067B01B0BDE8F08F00BF00BF12
:10114000182D4454FB210940C00000201C00002041
:1011500000000024000000002DE9F8432DED108B65
:10116000DFF8EC81054608F104067C4C4FF00009DD
:101170009FED788A9FED789ADFED799A9FED79EA75
:101180009FED69FBDFED788A9FED69AB9FED6ABB50
:101190009FED6BCB002741E000EE107AF8EE40EABD
:1011A0002EEE880A80EE090AB7EEC00AA0472EEE9E
:1011B000A91A9FED59DB9FED562B81EE091A00EE1F
:1011C00002DBB7EEC10AA0472EEE8E1A9FED542B1C
:1011D00000EE02DB81EE091AB7EEC10AA0472EEE3F
:1011E000A81A00EE0FDB81EE091AB7EEC10AA0477C
:1011F00000EE0ADB35F81700013700EE100AB8EEF2
:10120000400B2DEE000B20EE0B0B80EE0C0BB7EE1F
:10121000C00B06ED010AC6F800900836B7F5005F6E
:10122000BAD10D214046FFF793FE00249FED4F9A5F
:1012300020E008EB040595ED010A20EE008A95ED0B
:10124000000A00EE008AB0EE490AB5EEC08AF1EE5F
:1012500010FA0CDBB0EE480A06F09AFBB4EEC00AB6
:10126000F1EE10FA03D7B0EE480A06F091FB85EDD7
:10127000000A0834B4F5803FDBD100213C4800224D
:1012800005E083180832C3E90411C3E90E11302ABE
:10129000F7D198ED000AB7EEC00A08F1280319212A
:1012A000002780ED040B9FED331A01E00131083374
:1012B000A1F11402B7EB123F1FD193ED002AB4EE57
:1012C000C12AF1EE10FAF1DDB7EEC21A80ED061B6D
:1012D00008EBC20308338A420FD293ED002AB7EE1F
:1012E000C22A08330132B4EEC21BF1EE10FAF2DA70
:1012F00080ED062BB0EE421BEAE79FED131B20EEBC
:10130000010B80ED020BBDEC108B01B0BDE8F0834A
:10131000F42BA58017AADABFD65EFA4D1798CB3FFB
:101320003CB9FFF8ADBED13F27C6FF0B6E65B5BF18
:10133000B505A7E5D7747C3F6666666666660A40B3
:10134000295C8FC2F528CC40000000000000203F3F
:1013500000000424DB0FC94000F8FF453178000885
:10136000DB0F4941E4CB9641DB0FC941000000008F
:10137000C0000020000048437CB5002301930446D0
:1013800090F85000012801D1022039E0012084F8B2
:101390005000204615460E46FFF768FB0028616D99
:1013A00002D041F0100127E041F20212154B9143A7
:1013B0000231616521688A681A4006F4803305F0BD
:1013C000804633441A4402F100428A600E4A8B6818
:1013D000B3F1FF3F0CDC019B01330193019B93426E
:1013E000F5D3606D40F0100020F00201012003E011
:1013F000616D012262F301016165002184F85010E2
:1014000002B070BDC0FFFE3F00F8C32590F8502029
:10141000012A01D1022137E01CB50122F54C80F8E8
:1014200050200022019200920368A34222D1D4F8F6
:101430000831A2681A4352071CD4D1F800C0D4F86E
:101440000823BCF1000F22F440431FD04A681A431E
:10145000C4F80823A268D4F808311A43D20724D16B
:10146000D4F8082340F61F7389689A4341EA0C01B7
:10147000114318E0416D41F0200141650121002236
:1014800080F85020BDE81C4008467047C4F8083377
:10149000A168D4F808211143C90706D1D4F808136C
:1014A00040F61F729143C4F808130021E7E700BF1C
:1014B0002DE9FC4100220192044690F850000128D9
:1014C00001D102205EE1012084F850000D46206821
:1014D0008168490700F14E812968C14BB1F1FF3F96
:1014E00011DD91FAA1F2B2FA82F2194208BF8A0E16
:1014F000984602F01F02012303FA02F2C3691A435D
:10150000890EC26101E09846890E6A681F26C2F3FF
:10151000012302F01F0200EB83031F6B964001F0D2
:101520001F01B74391403943196381688268D2082B
:1015300042EA9101C90772D12968AA6804F0EBFB5D
:10154000A848006800F07040B0F1805F206805D1C5
:1015500069690E23C26803EA52020BE0C268696936
:10156000D206C3684FEA530202D402F00E0201E031
:1015700002F008022B69042B28D1016E01F0F8411A
:101580002A68B1EB826F4FEA826103D1026E22F0CA
:1015900000420266426E02F0F8428A4203D1426E75
:1015A00022F000424266826E02F0F8428A4203D183
:1015B000826E22F000428266C26E02F0F8428A42D7
:1015C0002DD1C16E21F00041C16628E02F6800F1E5
:1015D0006006914056F8232007F0F84702F00042D9
:1015E0003943114346F8231029696A7E56F82130A1
:1015F00023F00043012A08BF03F1004346F82130DD
:10160000297E2A6901390369B1FA81F14909C902C0
:1016100002F01F0223F4F0439140194301618168F5
:10162000C90767D1EA68296802F01806D0F8C070C7
:1016300001EA080328FA06F69F431E4037436A4E24
:10164000B242C0F8C07052D191FAA1F2B2FA82F758
:10165000002B3A4608BF8A0E8E0E013202F01E029F
:10166000092A0DD8D3B14FF0806101EB876101F0F9
:10167000F842791C01F01F0101238B401A4319E045
:10168000EBB14FF0806101EB876101F0F842791C0A
:1016900001F01F0101238B401A431CE001F0F841C7
:1016A00001F1806101F0F842711C01F01F0101237A
:1016B0008B401A4301EB410142EA015113E001F072
:1016C000F84101F1806101F0F842711C01F01F0145
:1016D00001238B401A4301EB4101444B03EB0151C1
:1016E000114341F00071AA6804F015FB2968B1F1BB
:1016F000FF3F01DD002042E0A84D05F58072206823
:1017000005F54077A84E9042394A3B4618BF02F58E
:101710004073A84208BF3B4640F48077B7429B68BD
:1017200004D1AF68D5F808613E4300E09668F7073A
:1017300020D1314DA94203F0E0762DD02F4DA942A2
:1017400039D190424FF0000008BF13F4000116D1C8
:10175000D2F808032B4920F0E070304340F4000039
:10176000C2F8080326480068B0FBF1F0022101EB43
:1017700040000CE0606D40F0200060650120002119
:1017800084F8501002B0BDE8F08101980138019052
:1017900001980028F9D1ADE790424FF0000008BF52
:1017A00013F08071EBD1D2F8080320F0E0703043E1
:1017B00040F0807010E090424FF00000DFD1124DF9
:1017C000A94208BF13F48001D9D1D2F8080320F050
:1017D000E070304340F48000C2F808038AE700BF9D
:1017E000FFFF0F000010005C0000FF47000020FE1C
:1017F0000060025800200240000052C7000084CB65
:1018000014000020400D03000000B8CF0148012162
:1018100001707047200100207047000070B500285B
:1018200000F099800446406D40F00200606503219D
:101830002046FFF77BF821680546CA68002842F475
:101840000012CA6007D12046FFF710F9054610B90B
:10185000012000256065206840F2FF7241689143D5
:10186000416002604E4A816821F0A0418160816838
:1018700041F000518160C16801F08021C160C16800
:1018800041F00041C16001691140464A016102F125
:101890001003416901F040414161816901F07841E3
:1018A0008161016A01F07C410162416A01F07C4181
:1018B0004162D0F8B01001F07C41C0F8B010D0F80F
:1018C000B41001F07C41C0F8B410D0F8B81001F0A9
:1018D0007C41C0F8B810D0F8BC1001F07C41C0F8D1
:1018E000BC10016B1940C84B0163416B114041634F
:1018F000816B1140816340F2DF72C16B9143C16320
:10190000016E00210166426E4166826E8166C26E82
:10191000C166D0F8A0106FF31301C0F8A010D0F882
:10192000A4106FF31301C0F8A410D0F8C0106FF327
:101930001301C0F8C010D0F8C41001F0F82240F430
:101940008071C0F8C4209942B04906D18A68D1F8A4
:1019500008311A4303E001251EE08C4A1268D207C1
:1019600013D101F58072894E01F5407390421A46F9
:1019700018BF06F53E72884208BF1A460B499068A8
:1019800008409060204600F00BF90020A065C4E9F3
:101990001700606584F85000284670BD00200240A2
:1019A0001CF800FC200882E000210240E03000FE2C
:1019B000704700007CB500210028019136D0044614
:1019C000406D30B9204600F023F90020A06584F86E
:1019D000500020688168890003D58168684A1140F9
:1019E00081608168C90014D4654A816802F180521F
:1019F0001140654A41F08051816062490968B1FB3C
:101A0000F2F1013101E001990139019101990029B7
:101A1000F9D18168C9000BD4616D012541F0100135
:101A20006165A16D41F00101A16502E00125A4E01D
:101A300000258168C1F38001626D02F010028918EF
:101A4000616D03D041F01000012595E021F4817112
:101A5000023161658168C90721D140F48071D64A9D
:101A60009142D64904D18A68D1F808311A4301E07D
:101A7000464A1268D20712D101F58072434E01F531
:101A8000407390421A4618BF06F53E72884208BF5E
:101A90001A466068916821F47C110843906001F057
:101AA000BFFD617D41F20402236B9042A26843EACC
:101AB000413107D3102A05D1207F41EA004141F08E
:101AC0001C0103E0207F114341EA0041012804D1B9
:101AD000206A2F4A02EB40400143606A28B100F4BB
:101AE0007870A26A084340EA02012068294BC26864
:101AF0001A401143C16081688268D20842EA9101AC
:101B0000C9072BD1217D44F20303E26A42EA813105
:101B1000C2689A431143C16094F8381001290169E1
:101B20000FD11D4A11401D4ED4E90F2306EB02428E
:101B30001943636C1143A26C1943114341F0010135
:101B400001E021F001010161016921F07041626B46
:101B5000114301612046FEF76DFE2068E168026BCB
:101B6000012922F00F0102D1A269013A1143016358
:101B70000121606D61F301006065284602B070BD0F
:101B8000C0FFFF5F14000020400D030008600258F2
:101B90000000FEFF03C0F0FF1EF800FC0000FFFF86
:101BA00010B5044600688349884211D082498842B2
:101BB00016D0C449884226D18548016801390160A0
:101BC00004D17F48016821F020010160012105E076
:101BD0007B48816821F080718160022179480DE0A5
:101BE0007B4801680139016004D17548016821F022
:101BF0002001016073480421A0F5006001F0D4FBCE
:101C0000E06C00F039FD10BD0021024000200240D0
:101C1000F0B587B0044602A81421FEF791FB2068B6
:101C20006449884248D0644988427ED0A5498842A8
:101C300040F0BE80664E3068411C0028604831602C
:101C400008D1016841F020010160016801F0200124
:101C5000019101998168002741F00401816002A986
:101C6000806800F004000190019801200290032098
:101C700003905448049701F007FC3546524845F854
:101C8000040F09204FF40061C5E901074FF480609B
:101C9000EF6028614FF40050C5E905102846C5E9FA
:101CA00007776F6201F07EF800287DD0FFF749F9D1
:101CB00006F13C00351D79E041488168002641F07D
:101CC00080718160816801F0807101910199816862
:101CD00041F00401816002A9806800F004000190D5
:101CE000019802200290032003903648049601F0E8
:101CF000CBFB3548354D7321303085E843004FF438
:101D00008060EE604FF4006128614FF40050C5E937
:101D100005102846C5E907666E6201F043F8002801
:101D200042D0FFF70EF9294D3EE029490868421CD0
:101D3000002823480A6008D1016841F020010160B1
:101D4000016801F02001019101998168002641F0AC
:101D50000101816002A9806800F0010001900198F2
:101D600004200290032003901648A0F5006004961A
:101D700001F08AFB1448174D0A21183085E843000A
:101D80004FF48060EE604FF4006128614FF4005022
:101D9000C5E905102846C5E907666E6201F002F83C
:101DA00010B1FFF7CEF80B4D05F13800E564046083
:101DB00007B0F0BD00600258002102400020024040
:101DC000D84402580008025810000240DC020020EB
:101DD00040000020640200202DE9F843394F07F548
:101DE000807503680446384E07F54070AB4208BF63
:101DF0000646BB4208BF0646B0689B685B0704D432
:101E0000894694F85010012903D1022001B0BDE8A1
:101E1000F08300F01F060120092E84F850004CD8F2
:101E2000B04040F22121084247D020469046FEF7BC
:101E300051FE18B1002184F85010E7E7216840F600
:101E40000172606DA94220EA020018BF0F4600F53A
:101E50008070002E606518BF8F4203D1606D20F442
:101E600080106065606D0022C004184F4FF00000C4
:101E7000174E44BFA06D20F00600A065E06CE36A39
:101E8000C0E90F76134FC7641C270F6084F85020F9
:101E90004A6842F010024A60CA6822F003021A43FC
:101EA000CA6040314A46434601F030F921680A4B86
:101EB0008A681A4004328A60A8E7002084F850003B
:101EC0000120A3E70020024000630258F509000842
:101ED000650A00084F0A0008C0FFFF7F2DE9F041A6
:101EE000044600284FF0010000F09E800D460029B6
:101EF00000F09A80607901284FF0020000F0948091
:101F000001216171904620712868042846D101F0B2
:101F10008DFBB8F1000F074612D02068416BB1F17C
:101F2000FF3F0ADC01F082FBC01B0228F5D32068CA
:101F3000406BB0F1FF3FF0DC10E0A969416417E0AD
:101F40003A4E2068416B314210D001F06FFBC01B4C
:101F50000228F6D32068406B3042F2D0206940F06E
:101F60000800206103202071BDE8F081A9690164A7
:101F700008F01001836C40F2FF322F6A8A4023EA96
:101F80000202EB698B401A438264FF22C36C8A40D1
:101F900023EA020207FA01F11143C164286908F03B
:101FA00010020128216808D11F208B6B904023EA82
:101FB00000006B699340184388630720CB6B904007
:101FC000EF6823EA000C012F4FF0000003D0022F2E
:101FD00003D1012705E0002703E0AF68B7FA87F7D0
:101FE0007F092E68AB6837433B436F68934043EAF1
:101FF0000C03CB634FF4804393400E6826EA03033F
:102000000B6040F6FE730E68934026EA0303974088
:102010003B430B60C02303FA02F20B6823EA02027F
:102020000A60012121716071BDE8F081008000200B
:1020300078B110B50446007920B9002060712046BF
:1020400000F00AF802202071002001212061217196
:1020500010BD01207047000070B586B0044601A88D
:102060001421FEF76DF920681F4988423AD11F48B4
:102070008168002641F000518160816801F00051C3
:1020800000910099016841F00101016001A9006817
:1020900000F00100009000982020019003200290A1
:1020A0001348039601F0F0F9124DF24844212860DC
:1020B0004020C5E901104FF48060EE604FF40061EC
:1020C00028614FF4005069614FF4807105F11802E6
:1020D00043C228466E6200F065FE08B1FEF731FF8C
:1020E000E560AC6306B070BD00740040E044025887
:1020F000000002585403002081B04FF0000C00286B
:10210000CDF800C007D000680029009005D00098E5
:102110001044143004E0012006E000981044083018
:10212000009000980360002001B07047002821D083
:102130004279012A4FF002022CD080B54FF0010CF9
:1021400080F805C001F0100E02710CFA0EFC026856
:102150000029136843EA0C03136011680CD00223B2
:1021600001F4781103FA0EF399420DD1516841F050
:10217000020108E001220DE001F03E01022903D135
:10218000516841F001015160012100220171427149
:10219000BDE8804010467047F8B5044601F046FAA5
:1021A000002C00F0AA80054694F83500022840F083
:1021B000A6802768AC4EB74238463CD0AB48874231
:1021C000384638D0AA488742384634D0A948874292
:1021D000384630D0A848874238462CD0A748874296
:1021E000384628D0A6488742384624D0A54887429A
:1021F000384620D0A448874238461CD0A34887429E
:10220000384618D0A2488742384614D0A1488742A1
:10221000384610D0A048874238460CD09F488742A5
:10222000384608D09E488742384604D09D488742A9
:1022300040F0E9809B48016821F01E0207F114017B
:1022400002606FF080000A68B74200EA020008608E
:102250003CD0F34887421CBFF248874236D0F24850
:1022600087421CBFF148874230D0F14887421CBFEB
:10227000F04887422AD0F04887421CBFEF48874287
:1022800024D0EF4887421CBFEE4887421ED0EE485C
:1022900087421CBFED48874218D0ED4887421CBFDB
:1022A000ED48874212D0EB4887421CBFEB4887427B
:1022B0000CD0EB4887421CBFEA48874206D0EA4868
:1022C00087421CBFE948874240F0B680206E016813
:1022D00021F480710160386820F0010038603868AE
:1022E000C00710D001F0A2F9401B0628F7D3202028
:1022F0006065032084F8350003E0012081E0802040
:10230000606501207AE02068B0421CBFC449884261
:102310001DD0C44988421CBFC349884217D0C34955
:1023200088421CBFC249884211D0C24988421CBFA2
:10233000C14988420BD0C14988421CBFC04988426C
:1023400005D0C04988421CBFBF4988425FD1A16DFA
:10235000E26D3F2302F01F0203FA02F28A60B042EC
:102360003BD0AF4988421CBFAE49884235D0AE4908
:1023700088421CBFAD4988422FD0AD4988421CBF5E
:10238000AC49884229D0AC4988421CBFAB4988423D
:1023900023D0AB4988421CBFAA4988421DD0AA4914
:1023A00088421CBFA949884217D0A94988421CBF4E
:1023B000A949884211D0A74988421CBFA749884231
:1023C0000BD0A74988421CBFA649884205D0A64920
:1023D00088421CBFA54988423BD1E06ED4E919125E
:1023E00000284A6006D0016821F480710160D4E9B8
:1023F0001C014160012084F835000020002184F890
:10240000341001B0F0BD6FF00E0039461BE78F4964
:1024100088429CD09049884299D08D49884296D074
:102420008C498842A16D93D0E26D012302F01F0216
:1024300003FA02F24A6092E78D4887423FF446AFC2
:10244000F34887423FF442AF8A4887423FF43EAFA9
:1024500041E7F5498842C0D0ED498842BDD0F349F3
:102460008842BAD0C6E700BF1000024028000240F0
:1024700040000240580002407000024088000240C4
:10248000A0000240B80002401004024028040240AC
:102490004004024058040240700402408804024094
:1024A000A0040240B804024010B5002844D090F8BF
:1024B000351002293ED10168C64A914223D0C64B4D
:1024C00099421CBFC54B99421DD0C54B99421CBFB8
:1024D000C44B994217D0C44B99421CBFC34B99427D
:1024E00011D0C34B99421CBFC24B99420BD0C24B77
:1024F00099421CBFC14B994205D0C14B99421CBFA8
:10250000C04B99423CD10423914280F835300BD026
:10251000B14881421CBFB148814205D0B0488142D8
:102520001CBFB04881420AD1086820F00100086051
:10253000002102E0802141650121084610BDAA4822
:102540008142F1D0A9488142EED0A9488142EBD026
:10255000A8488142E8D0A84881421CBFA7488142D0
:10256000E2D0A74881421CBFA6488142DCD0A648E1
:102570008142D9D0AE488142D6D0A4488142D3E727
:10258000A14B9942BFD0AA4B9942BCD09F4B9942D4
:10259000B9D00A6822F00E020A609E4A91420A6887
:1025A00022F001020A600BD09B4A91421CBF9B4A59
:1025B000914205D09A4A91421CBF9A4A914225D134
:1025C000D0E916C2D0E9183E196802F01F0221F4C2
:1025D00080710124196004FA02F1CCF80410816EB4
:1025E000CEF80410C16E31B10A6822F480720A601C
:1025F000D0E91C124A60012180F835100021026DDB
:10260000002A80F8341098D0904791E7864A91428A
:10261000D6D07F4A9142D3D0844A9142D0D0EAE7C3
:102620002800024040000240580002407000024072
:1026300088000240A0000240B8000240100402409E
:102640002804024040040240580402407004024042
:1026500088040240B8040240A00402400854025812
:102660001C540258305402584454025858540258CA
:102670006C54025880540258B0B5002800F0A7806E
:10268000044600680168534A904221F0010101604C
:10269000014664D050498842014660D04F49884283
:1026A00001465CD04E498842014658D04D49884287
:1026B000014654D04C498842014650D04B4988428B
:1026C00001464CD04A498842014648D0494988428F
:1026D000014644D048498842014640D04749884293
:1026E00001463CD046498842014638D04549884297
:1026F000014634D044498842014630D0434988429B
:1027000001462CD0424988421CBF424988420BD026
:10271000414988421CBF4149884205D0404988420E
:102720001CBF4049884210D1002101604160816096
:10273000C16001612046FEF73DFAE16D012201F022
:102740001F0102FA01F141601BE037498842EBD0DA
:1027500036498842E8D03649884238D13449002287
:102760000A60212142608260C260026141612046AC
:10277000FEF720FAE16D3F2201F01F0102FA01F19C
:1027800081602046FEF768FA206E20B100210160CA
:10279000D4E91901416060680138082808D2204650
:1027A000FEF7A2FA04F16C0207CA002303604A6034
:1027B000002504F13C001821C4E91B556567FDF7AD
:1027C000BFFD656584F8355084F8345000E001257C
:1027D0002846B0BD100002402800024040000240E0
:1027E000580002407000024088000240A0000240F1
:1027F000B800024010040240280402404004024095
:10280000580402407004024088040240A0040240C0
:1028100094540258085402581C5402583054025818
:1028200044540258585402586C5402588054025868
:10283000B80402402DE9FC410021C64F0191044635
:10284000DFF89C1E0068A56DB842D1F800802E68A4
:1028500029682AD0C04A90421CBFC04A904224D066
:10286000BF4A90421CBFBF4A90421ED0BE4A90420F
:102870001CBFBE4A904218D0BD4A90421CBFBD4A00
:10288000904212D0BC4A90421CBFBC4A90420CD02D
:10289000BB4A90421CBFBB4A904206D0BA4A904203
:1028A0001CBFBA4A904240F0A181E16D082201F0BC
:1028B0001F018A40324236D0BC46B8424FF0040372
:1028C00024D0A54FB8421CBFA44FB8421ED0A44F7D
:1028D000B8421CBFA34FB84218D0A34FB8421CBF88
:1028E000A24FB84212D0A24FB8421CBFA14FB8426B
:1028F0000CD0A14FB8421CBFA04FB84206D0A04F89
:10290000B8421CBF9F4FB84240F0988107681F42F1
:10291000674608D0036823F004030360AA60626D71
:1029200042F00102626501228A4032422ED0B84252
:1029300024D0894B98421CBF884B98421ED0884BAC
:1029400098421CBF874B984218D0874B98421CBFB7
:10295000864B984212D0864B98421CBF854B9842BA
:102960000CD0854B98421CBF844B984206D0844BB8
:1029700098421CBF834B984240F06D8143691B060F
:1029800004D5AA60626D42F00202626504228A40A8
:1029900032422ED0B84224D06F4B98421CBF6F4BAE
:1029A00098421ED06E4B98421CBF6E4B984218D076
:1029B0006D4B98421CBF6D4B984212D06C4B9842A5
:1029C0001CBF6C4B98420CD06B4B98421CBF6B4B9E
:1029D000984206D06A4B98421CBF6A4B984240F01E
:1029E000488103689B0704D5AA60626D42F0040227
:1029F0006265102202FA01F131423FD0B8424FF035
:102A0000080224D0D24B98421CBFD24B98421ED011
:102A1000D14B98421CBFD14B984218D0D04B984212
:102A20001CBFD04B984212D0CF4B98421CBFCF4B0B
:102A300098420CD0CE4B98421CBFCE4B984206D049
:102A4000CD4B98421CBFCD4B984240F0208103688B
:102A5000134213D0A96001684903016806D4C9056F
:102A600006D4016821F00801016001E0080301D4E7
:102A7000216C00E0A16C09B120468847E06D00F0B0
:102A80001F01202000FA01F2324200F08580206808
:102A90001023B84224D0AE4EB0421CBFAD4EB0425F
:102AA0001ED0AD4EB0421CBFAC4EB04218D0AC4EA2
:102AB000B0421CBFAB4EB04212D0AB4EB0421CBFB6
:102AC000AA4EB0420CD0AA4EB0421CBFA94EB04292
:102AD00006D0A94EB0421CBFA84EB04240F0E480E0
:102AE00007681F4258D0AA6094F83520042A02686B
:102AF0001BD122F016020260426922F0800242617C
:102B0000226C0AB9A26C1AB1026822F008020260B3
:102B10003F208840A860012084F835000020216D06
:102B2000002984F834005DD15EE0510301680CD4C3
:102B3000C9052DD4016821F010010160012084F83D
:102B40003500002084F8340022E0080320D4616CB2
:102B50001FE000BF10000240280002404000024079
:102B6000580002407000024088000240A00002406D
:102B7000B800024010040240280402404004024011
:102B8000580402407004024088040240A00402403D
:102B9000E16B09B120468847606D28B3606DC007BE
:102BA0001ED04FF41650B8FBF0F0042184F8351015
:102BB00021680A6822F001020A60019A0132824209
:102BC000019202D80A68D207F7D10868C0074FF00F
:102BD000030008BF012084F83500002084F8340089
:102BE000E16C09B120468847BDE8FC81664A904205
:102BF0001CBF664A90420CD0654A90421CBF654A91
:102C0000904206D0644A90421CBF644A904240F011
:102C100091800268E36D570703F01F0351D5042725
:102C20009F4017EA01064CD011046F6060D49106F2
:102C300062D4016821F0040101605DE0504FB842A8
:102C40003FF464AE4F4FB8423FF460AE544FB842C9
:102C500018BF08235AE64A4B98423FF48FAE494BBF
:102C600098423FF48BAE4E4B98423FF487AE0268D9
:102C70008CE6434B98423FF4B4AE424B98423FF44B
:102C8000B0AE474B98423FF4ACAE0268B1E63C4B65
:102C900098423FF4DCAE3B4B98423FF4D8AE404BF9
:102CA000984218BF0422D2E6354EB0423FF418AF26
:102CB000344EB0423FF414AF394EB04218BF022335
:102CC0000EE797071AD502279F4017EA010615D08D
:102CD00011046F6028D491062AD4016821F00A01FA
:102CE0000160012084F83500002084F834001FE0E2
:102CF000D00301D4A16C74E7216C72E712077FF551
:102D000073AF08229A4011403FF46EAF0168012270
:102D100021F00E01016002FA03F068600020626594
:102D200084F83520E16CFBE6D00301D4616C58E7F0
:102D3000E16B56E7F04A90423FF46BAFEF4A9042A6
:102D40003FF467AFEE4988423FF4AFAD4CE700BFB8
:102D5000280002404000024058000240700002403B
:102D600088000240A0000240B80002401004024067
:102D7000280402404004024058040240700402400B
:102D800088040240A0040240945402580854025897
:102D90001C54025830540258445402585854025893
:102DA000B8040240F8B5044600F040FC002C7BD08B
:102DB00005462068C14FB8422AD0C14988421CBF8D
:102DC000C049884224D0C04988421CBFBF498842BC
:102DD0001ED0BF4988421CBFBE49884218D0BE4998
:102DE00088421CBFBD49884212D0BD4988421CBFE1
:102DF000BC4988420CD0BC4988421CBFBB498842B0
:102E000006D0BB4988421CBFBA49884240F0F280D4
:102E1000022184F83510002184F83410016821F073
:102E20000101016005E000F001FC401B052836D8D7
:102E300020680168C907F6D10168B24A1140D4E997
:102E4000022311432269194363691143A26919439B
:102E5000E36941EA0205616A2B43256A042943EAD2
:102E6000050303D1D4E90B562B433343A64D2E68FB
:102E7000B6F1005F1CD36568292D19D32F2D15D30A
:102E8000A5F13F06042E11D3472D11D3492D0DD3A3
:102E9000A5F14F06032E98BF43F4801308E02020CD
:102EA0006065032084F835000120A1E043F480131D
:102EB00003600429436923F0070341EA030127D192
:102EC000D4E90A53002B41EA050121D0B2F5005F95
:102ED00006D08AB9022D12D0012D07D07DB117E09E
:102EE000032D15D8DFE805F00E0B0E02A3F1C0721A
:102EF000B2FA82F2520904E0032D03D308D1C3F3DE
:102F000000622AB140206065012084F835006FE03E
:102F100041612046FDF74EFEE16D3F2201F01F01A9
:102F200002FA01F181602068B8423BD064498842CE
:102F30001CBF6449884235D0634988421CBF63493D
:102F400088422FD0624988421CBF6249884229D0FA
:102F5000614988421CBF6149884223D06049884248
:102F60001CBF604988421DD05F4988421CBF5F4931
:102F7000884217D05E4988421CBFF949884211D067
:102F8000F84988421CBFF84988420BD0F74988426B
:102F90001CBFF749884205D0F64988421CBFF64954
:102FA00088427ED12046FDF757FEA068802802D1D6
:102FB0000020606000E06068C2B2216E0138D4E990
:102FC000193707280A605F6009D82046FDF78CFE94
:102FD00004F16C0207CA002303604A6003E000208A
:102FE000C4E91B00606700200121606584F835108A
:102FF00001B0F0BDE24988421CBFDB4988420BD0DA
:10300000DA4988421CBFDA49884205D0D94988424A
:103010001CBFD949884238D1022184F835100021DB
:1030200084F834100168A2686FF31011A2F18003D4
:10303000B3FA83F35B099B03402AE26808BF1023BD
:1030400041EAD20122691943636941EAD201A269C6
:1030500041EAD301E36941EAD201226A41EAD3019C
:1030600041EA121140F808191421C0B2B0FBF1F086
:103070008000E0652046FDF79DFDE16D012201F035
:103080001F0102FA01F141604DE7BC498842C3D0FB
:10309000BC498842C0D0B34988423FF4B9AE402011
:1030A000FEE6B64988423FF47DAFB54988423FF419
:1030B00079AFB44988423FF475AF94E710000240FD
:1030C00028000240400002405800024070000240C8
:1030D00088000240A0000240B800024010040240F4
:1030E0002804024040040240580402407004024098
:1030F00088040240A00402406C54025880540258D4
:10310000B80402403F8010FE0010005CB0B50028FB
:1031100000F0E780054690F83400012801D1022034
:10312000B0BD012085F8340095F83500012840F045
:10313000D280022085F83500002068652868046880
:1031400024F0010404602846FDF700FE2868764953
:10315000884202463CD0754A9042024638D0744AB2
:103160009042024634D0734A9042024630D0724AAE
:10317000904202462CD0714A9042024628D0704AB2
:103180009042024624D06F4A9042024620D06E4AB6
:10319000904202461CD06D4A9042024618D06C4ABA
:1031A0009042024614D06B4A9042024610D06A4ABE
:1031B000904202460CD0694A9042024608D0684AC2
:1031C0009042024604D0674A904240F08C80654AA3
:1031D00012680B2363F3440202602A6C1AB102687E
:1031E00042F00802026088423BD0504A90421CBF25
:1031F0004F4A904235D04F4A90421CBF4E4A9042AF
:103200002FD04E4A90421CBF4D4A904229D04D4A81
:1032100090421CBF4C4A904223D04C4A90421CBF63
:103220004B4A90421DD04B4A90421CBF4A4A9042A2
:1032300017D04A4A90421CBF494A904211D0494A8D
:1032400090421CBF484A90420BD0484A90421CBF53
:10325000474A904205D0474A90421CBF464A904296
:1032600057D12A6E1368DB0303D5136843F48073C8
:103270001360EA6E1AB1136843F4807313608842D6
:1032800023D02A4988421CBF294988421DD0294998
:1032900088421CBF2849884217D0284988421CBF51
:1032A0002749884211D0274988421CBF26498842B5
:1032B0000BD0264988421CBF2549884205D02549A4
:1032C00088421CBF244988421AD1016841F001019B
:1032D00001600020B0BD4FF400606865002085F8F3
:1032E00034000120B0BD0268052363F3430202608D
:1032F0002A6C002A3FF477AF026842F0040271E7BB
:1033000016498842E1D017498842DED014498842E4
:10331000DBE71A4A9042A4D0194A9042A1D0194A38
:1033200090429ED0D1E700BF10000240280002402A
:1033300040000240580002407000024088000240F5
:10334000A0000240B80002401004024028040240DD
:1033500040040240580402407004024088040240C5
:10336000A0040240B8040240085402581C540258F9
:103370003054025844540258585402586C5402585D
:103380009454025880540258B0B5044600F04EF9E7
:10339000D249621C0978054618BF0C4400F046F972
:1033A000401BA042FAD3B0BD2DE9F84F964A0A2738
:1033B000964C02444FEAB223A04208BF0927092BCA
:1033C00038BF4FEAB2274FF0000B4FF0000E0097C6
:1033D000002653E0012202FA06F515EA010848D05A
:1033E000B2088B4B0BF00C0A53F822C00F2303FAE0
:1033F0000AF9009B0CEA090403FA0AF7BC421BD144
:10340000804BDF6F27EA0807DF67D3F8807027EA71
:103410000807C3F880701F6827EA08071F604FF08D
:10342000B0431F6827EA08071F60794B53F82270E2
:1034300027EA090743F822700322076802FA0EF20E
:103440006FF00303174303EA560307600BF01C04F5
:1034500003440F27A7401C6A24EA07071F62C368BA
:103460009343C3604368AB434360836823EA02022B
:10347000826001360EF1020E0BF1040B31FA06F2F6
:10348000A8D1BDE8F88F00BF2DE9FC4F5E4A0A279E
:103490005E4C02444FEAB223A04208BF0927092B21
:1034A00038BF4FEAB2274FF0000C009701274FF0CA
:1034B000000E00269EE007FA06F912EA090B00F05A
:1034C00094804A6802F00308A8F1010ABAF1010FDA
:1034D00013D80324856804FA0EF325EA0303CD68A4
:1034E00005FA0EF52B4383604368C2F3001523EA07
:1034F0000903B5402B43436004E0B8F1030F4FF0DC
:1035000003041FD0C36804FA0EF5AB438D6805FAB7
:103510000EF52B43B8F1020FC36013D16FF0030215
:1035200002EA560202440CF01C03D2F820800F2558
:103530009D4028EA05080D6905FA03F343EA0803EC
:1035400013624A68036804FA0EF5AB4302F0030500
:1035500005FA0EF52B4312F4403F036045D08A4A2A
:1035600013462B4C12680F2542F002021A601A68AB
:1035700002F00202019226F00302019B0CF00C0300
:1035800052F804809D40009F28EA050507FA03F3DE
:103590002B4313514FF0B048D8F800204B6842EA53
:1035A0000B05DF0258BF22EA0B05164A1446C8F87D
:1035B00000509F02126842EA0B0558BF22EA0B0531
:1035C0009F0325604FF00107D4F8802042EA0B05E5
:1035D00058BF22EA0B05DB03C4F88050E26F42EAD1
:1035E0000B0558BF22EA0B05E56701360EF1020E06
:1035F0000CF1040C0A6832FA06F47FF45CAFBDE803
:10360000FC8F00BF040000580000FEA700240258F1
:1036100008040058002A08BF0904816170470000AF
:1036200001480068000C70470010005C0548006805
:10363000704700BF2948007802490A6810440860B2
:10364000704700BF7406002080B5032000F0CCF85E
:1036500001F004FA0F490A68C2F303220968844B97
:1036600001F00F019A5C595C02F01F02D0400A4A37
:1036700001F01F0120FA01F11160194908600F20C3
:1036800000F00CF808B1012080BD00F06FF80020B8
:1036900080BD00BF184402581800002070B50F4EBE
:1036A0003178C1B104464FF47A70B0FBF1F00C49A7
:1036B0000968B1FBF0F001F0E1FC0F2C4FF00105BF
:1036C0000AD848B94FF0FF3000222146002500F00B
:1036D0006BF8746000E00125284670BD0C000020E6
:1036E0001400002010B54278124C90F800C02260FF
:1036F000A26822F00102A26042686260C27A037B83
:103700001206817A42EA0372437B42EAC141827B1C
:1037100041EA8341C37B41EA4241427A41EA0341A3
:10372000007A41EA022141EA400040EA0C00A06030
:1037300010BD00BF98ED00E0BFF35F8F0A4801683D
:1037400021F48031016000210167704740F00100E1
:1037500005490867086840F480300860BFF34F8F60
:10376000BFF36F8F704700BF24ED00E081B00648C3
:10377000016841F002010160006800F00200009061
:10378000009801B0704700BFF4440258002808DBDD
:1037900000F01F01012202FA01F1024A400942F839
:1037A0002010704700E100E080B5154B1B68C3F3A3
:1037B000022C8CF0070EBEF1040F28BF4FF0040E50
:1037C000BCF103034FF0FF3C38BF00230CFA0EFEA0
:1037D00021EA0E0199400CFA03F39A431143BDE824
:1037E000804003F09DBE00BF05490A684FF6FF0305
:1037F0001A4060F30A22034810430860704700BF74
:103800000CED00E00000FA05B0B5104D296849073D
:10381000296805D401F00701081A18BF0120B0BDBE
:1038200021F0070108432860FFF700FF044655F820
:10383000080C800407D4FFF7F9FE001BB0F57A7F6F
:10384000F5D90120B0BD0020B0BD00BF0C48025822
:1038500080B501F0C3F80549054A0968C1F30211B2
:10386000515C01F01F01C84080BD00BF20440258D8
:103870007089000810B53D4CA36AA26AC2F3051C0A
:10388000E26A616B02F00102C1F3CC01BCF1000FEE
:1038900011FB02F100EE101AB8EE400A0CD003F052
:1038A0000303022B0CD0012B0DD013B9216889061C
:1038B0000CD49FED311A13E00021C0E9001153E050
:1038C0009FED2C1A0CE09FED2A1A09E021682B4A83
:1038D000C1F3C10122FA01F101EE101AB8EE411A4A
:1038E00002EE10CA9FED263AB8EE422A216B6FF322
:1038F0005F2181EE021A02EE101AB8EE422A216B05
:10390000C1F3462100EE032AB7EE000A03EE101AB7
:1039100032EE002AB8EE433A21EE021A33EE002AC4
:1039200081EE022ABCEEC22A80ED002A216BC1F38F
:10393000064102EE101AB8EE422A32EE002A81EE5B
:10394000022ABCEEC22A80ED012A216BC1F3066176
:1039500002EE101AB8EE422A32EE000A81EE000A98
:10396000BCEEC00A10EE101A816010BD004402586F
:103970000024744A20BCBE4B0024744C0090D00339
:103980000000003910B53C4CA36AA26AC2F3053CA2
:10399000E26AC2F30012E16BC1F3CC01BCF1000F8B
:1039A00011FB02F100EE101AB8EE400A0AD003F043
:1039B0000303022B0AD063B9216889060CD49FED5A
:1039C000311A13E00021C0E9001153E09FED2C1AD9
:1039D0000CE09FED2A1A09E021682B4AC1F3C101CE
:1039E00022FA01F101EE101AB8EE411A02EE10CAE5
:1039F0009FED263AB8EE422AA16B6FF35F2181EE6C
:103A0000021A02EE101AB8EE422AA16BC1F3462147
:103A100000EE032AB7EE000A03EE101A32EE002A77
:103A2000B8EE433A21EE021A33EE002A81EE022A62
:103A3000BCEEC22A80ED002AA16BC1F3064102EE62
:103A4000101AB8EE422A32EE002A81EE022ABCEEAB
:103A5000C22A80ED012AA16BC1F3066102EE101AA1
:103A6000B8EE422A32EE000A81EE000ABCEEC00A2D
:103A700010EE101A816010BD004402580024744AF0
:103A800020BCBE4B0024744C0090D00300000039D1
:103A900010B53C4CA36AA26AC2F3055CE26AC2F3A9
:103AA0000022616CC1F3CC01BCF1000F11FB02F1EB
:103AB00000EE101AB8EE400A0AD003F00303022BFE
:103AC0000AD063B9216889060CD49FED311A13E03E
:103AD0000021C0E9001153E09FED2C1A0CE09FED8E
:103AE0002A1A09E021682B4AC1F3C10122FA01F127
:103AF00001EE101AB8EE411A02EE10CA9FED263AF6
:103B0000B8EE422A216C6FF35F2181EE021A02EEB9
:103B1000101AB8EE422A216CC1F3462100EE032AA6
:103B2000B7EE000A03EE101A32EE002AB8EE433A5E
:103B300021EE021A33EE002A81EE022ABCEEC22ADE
:103B400080ED002A216CC1F3064102EE101AB8EE96
:103B5000422A32EE002A81EE022ABCEEC22A80ED11
:103B6000012A216CC1F3066102EE101AB8EE422A56
:103B700032EE000A81EE000ABCEEC00A10EE101A06
:103B8000816010BD004402580024744A20BCBE4B22
:103B90000024744C0090D00300000039F8B580F484
:103BA00000220A4300F07F8080F400720A4332D082
:103BB00080F480620A4300F0878080F400620A4348
:103BC00038D080F480520A4300F08B8080F4005299
:103BD0000A4300F0948080F480420A4337D080F496
:103BE00000420A4342D080F480320A434ED080F42F
:103BF0008070084340F0DF808749086D00F00702BD
:103C0000042A00F2D8808848DFE812F077008700A5
:103C10008E00D60096008049086DC0F38212042AF7
:103C200000F2C9808048DFE812F0680078007F0069
:103C3000C70087007849886DC0F30262042A00F249
:103C4000BA807948DFE802F0596970B878007248A4
:103C5000816DC1F30271052900F2AD80DFE801F04A
:103C600003869198A28DFFF7F3FDA5E06A48016DE8
:103C700001F04051B1F1005F00F07880B1F1805F58
:103C800000F09680002940F0968076E06248C16C92
:103C9000C903006840F18D80000140F18C8001A8CB
:103CA000FFF770FEA1E05C48816D01F44031B1F591
:103CB000003F00F08880B1F5803F00F0908000293F
:103CC00040F07980006829E05349886DC0F3425282
:103CD000042A00F270805448DFE802F00F1F266EBD
:103CE0002E004D49086DC0F30232042A63D84E48B5
:103CF000DFE802F003131A622200086859E0464820
:103D0000016DC1F30241052955D8DFE801F0032F09
:103D10003A414B3600F082FE4EE0086800014AD579
:103D200001A8FFF72FFE05E00868800043D501A831
:103D3000FFF7AEFE01983FE0C86C10F040520B68F0
:103D4000086802D113F0040326D1B2F1805F02D1DA
:103D500010F4807051D1086810F400301CBF47F691
:103D60004000C0F27D10B2F1005F52E00068000137
:103D700021D501A8FFF706FE23E00068274980034C
:103D800013E00068800016D501A8FFF781FE18E057
:103D9000016849070FD50068C0F3C100214921FA25
:103DA00000F009E000681E49C00501EAE07003E088
:103DB0000068800102D4002004B080BD01A8FFF794
:103DC00059FD0298F8E7C16C11F040510368026890
:103DD0000DD113F004030AD0C2F3C100DEE700687E
:103DE0008000E8D501A8FFF753FE0398E4E7B1F19E
:103DF000805F04D112F4807201D00948DCE70068CA
:103E000010F400301CBF47F64000C0F27D10B1F145
:103E1000005F18BF0020CFE70044025840787D01C2
:103E200000093D000090D0030080BB002DE9F04761
:103E30000446C078B04F000722D5A06E4FEA30513B
:103E4000032908D8DFE801F002090F17F96941F4E6
:103E50000031F9610FE0012613E004F108000221AE
:103E600002F086FA04E004F12800022102F000FBCF
:103E7000064630B9A06E396C21F44011084338640D
:103E800000266078BA46C00701D135462AE0A06D09
:103E900004280BD83546DFE800F0030C1218180090
:103EA000F869354640F40030F8610EE0012501273D
:103EB00019E004F10800002102F05AFA04E004F1CC
:103EC0002800002102F0D4FA0546002D2F460AD121
:103ED000DAF84000002520F00700A16D08435246A3
:103EE000CAF840003746607880072DD5E06D4FEA6C
:103EF000B01004280CD8DFE800F0030E141A1A00E2
:103F0000DAF81C00514640F40030CAF81C000EE0FC
:103F10000125012619E004F10800002102F028FA29
:103F200004E004F12800002102F0A2FA0546002D69
:103F30002E460AD1DAF84000002520F4E070E16D49
:103F400008435246CAF840003E466078400702D413
:103F5000B04657462CE0D4F8A80057464FEA7050B8
:103F6000042809D8DFE800F0030C12181800F869DB
:103F700040F40030F8610FE001254FF0010817E030
:103F800004F10800002102F0F3F904E004F1280034
:103F9000002102F06DFA0546002DA84608D1B86C44
:103FA000002520F46000D4F8A8100843B046B86497
:103FB000607800072CD5D4F8AC004FEA30600428B4
:103FC00009D8DFE800F0030B11171700F86940F477
:103FD0000030F8610EE0012501271AE004F1080025
:103FE000002102F0C5F904E004F12800002102F0EC
:103FF0003FFA0546002D2F460BD1DAF84800002580
:1040000020F0E060D4F8AC1008435246CAF84800EB
:104010004746E078800726D5E06C4FEA3010032849
:104020000BD8DFE800F013020D13DAF81C0051463C
:1040300040F40030CAF81C0008E00125012613E016
:1040400004F10800022102F093F90546002D2E46E6
:104050000AD1DAF83C00002520F03000E16C08437A
:104060005246CAF83C003E466078C0062DD5206E08
:104070004FEA303004280CD8DFE800F0030E141AA1
:104080001A00DAF81C00514640F40030CAF81C004F
:104090000EE00125012719E004F10800002102F0DB
:1040A00067F904E004F12800002102F0E1F9054677
:1040B000002D2F460AD1DAF84000002520F4E04018
:1040C000216E08435246CAF84000374660788006A1
:1040D00027D5606E4FEA304005280AD8DFE800F0A7
:1040E00014030E14141404F10800012102F040F925
:1040F00009E00125012615E01044025804F12800CA
:10410000012102F0B5F90546002D2E460AD1DAF854
:104110004000002520F4E020616E08435246CAF8B2
:1041200040003E466078400627D5D4F8B0004FEAFC
:10413000307005280AD8DFE800F012030C121212C2
:1041400004F10800012102F013F907E0012501271D
:1041500014E004F12800012102F08AF90546002D3F
:104160002F460BD1DAF84800002520F0E040D4F8C3
:10417000B01008435246CAF8480037466078000637
:1041800022D5206F98B1B0F1005F0AD0B0F1805F06
:104190002ED1DAF81C00514640F40030CAF81C0059
:1041A00005E004F10800012102F0E2F80546002DC7
:1041B0002E460AD1DAF84000002520F04050216F49
:1041C00008435246CAF840003E46E078C00702D194
:1041D000B046574624E0A06C574603280BD8DFE8CA
:1041E00000F014020E14F86940F40030F8610CE09D
:1041F00001250126E9E701254FF0010810E004F14F
:104200000800022102F0B4F80546002DA84607D1A7
:10421000F86B002520F00300A16C0843B046F8635A
:10422000A078400601D4474617E0D7F8F00340F4E1
:104230008070C7F8F003FFF7F9F90646D7F8F003E6
:10424000C00507D4FFF7F2F9801B6428F6D90325CF
:10425000032702E0002D2F4612D02078C00750D04F
:10426000E06F4FEAF000052835D8DFE800F03D03A5
:10427000373D3D3D04F10800012102F079F832E0BC
:10428000DAF860105346D4F8B400414011F4407F8E
:104290000BD0196E1A6E21F4407142F480321A6606
:1042A0001A6E22F480321A661966B0F5807F40F0EB
:1042B0007282FFF7BBF9064641F2883903250327CE
:1042C000DAF86000800700F16382FFF7AFF9801B26
:1042D0004845F5D9C1E70125012613E004F128007E
:1042E000012102F0C5F80546002D2E460AD1DAF864
:1042F0004400002520F03800E16F08435246CAF818
:1043000044003E462078800723D5A06F05280AD8B0
:10431000DFE800F012030C12121204F10800012170
:1043200002F026F807E00125012713E004F1280038
:10433000012102F09DF80546002D2F460AD1DAF83A
:104340004400002520F00700A16F08435246CAF838
:10435000440037462078400725D5D4F89400052836
:104360000AD8DFE800F012030C12121204F1080060
:10437000012101F0FDFF07E00125012614E004F111
:104380002800012102F074F80546002D2E460BD1BD
:10439000DAF84800002520F00700D4F8941008430C
:1043A0005246CAF848003E462078800627D5D4F801
:1043B00090004FEA307005280AD8DFE800F01203B9
:1043C0000C12121204F10800002101F0D1FF07E0E5
:1043D0000125012714E004F12800022102F048F829
:1043E0000546002D2F460BD1DAF84400002520F0B9
:1043F000E040D4F8901008435246CAF844003746CB
:104400002078400627D5D4F89C004FEAB020052834
:104410000AD8DFE800F012030C12121204F10800AF
:10442000002101F0A5FF07E00125012614E004F1B9
:104430002800022102F01CF80546002D2E460BD163
:10444000DAF84800002520F4E050D4F89C10084326
:104450005246CAF848003E462078000627D5D4F8D0
:10446000A0004FEA703005280AD8DFE800F01203F8
:104470000C12121204F10800002101F079FF07E08C
:104480000125012714E004F12800022101F0F0FFCA
:104490000546002D2F460BD1DAF84800002520F400
:1044A0006040D4F8A01008435246CAF84800374686
:1044B0002068010717D5D4F88410B1F5805F0AD1C0
:1044C00004F12800022101F0D3FF0028206818BF62
:1044D0000127D4F88410DAF84420534622F44052DD
:1044E0001143CAF84410C10617D5D4F89810B1F595
:1044F000807F0AD104F12800022101F0B9FF0028D1
:10450000206818BF0127D4F89810DAF848205346DD
:1045100022F440721143CAF84810000322D5D4F89F
:10452000A400B0F5003F0FD0B0F5803F06D088BBA7
:1045300004F10800002101F01BFF04E004F1280051
:10454000022101F095FF0546002D2E460BD1DAF829
:104550004800002520F44030D4F8A4100843524607
:10456000CAF848003E46A07840072AD5D4F888000B
:10457000B0F5401F17D0B0F5001F0ED0B0F5801F6A
:1045800040F00181DAF81C00514640F40030CAF8CE
:104590001C0008E001250126E5E704F128000121BF
:1045A00001F066FF0546002D2F460BD1DAF84400D6
:1045B000002520F44010D4F8881008435246CAF869
:1045C00044003746A078C00701D13E4622E0206D66
:1045D000B0F5803F08D0D8B9DAF81C00514640F455
:1045E0000030CAF81C0005E004F10800022101F0C7
:1045F000BFFE0546002D2E460CD1DAF83C00002502
:1046000020F48030216D08435246CAF83C00DCE7B4
:10461000012501262168880001D4606809E004F1C1
:104620002800022101F024FF002818BF0126D4E948
:1046300000108A031BD5D4F880206FF0010303EB30
:104640003223022B0BD34FEA322343B1012B40F02C
:104650009D80DAF81C3043F40033CAF81C303DB9B1
:10466000DAF8443023F440731A43CAF8442035463C
:10467000CA0207D5DAF8402022F00042636F1A43DD
:10468000CAF84020CA0008D5DAF8002022F4804297
:10469000D4F8B8301A43CAF800208A0207D5DAF8ED
:1046A000402022F08072E36E1A43CAF840204A008C
:1046B0000CD5DAF8002022F40042CAF80020D4F821
:1046C000BC20DAF800301A43CAF80020B1F1FF3FED
:1046D00007DCDAF83C2022F04052636D1A43CAF836
:1046E0003C20090208D5DAF8441021F44001D4F83E
:1046F0008C201143CAF84410C10708D004F1080007
:10470000002101F035FE002818BF054660688107CA
:1047100008D504F10800012101F02AFE002818BF85
:1047200005466068410708D504F10800022101F040
:104730001FFE002818BF05466068010708D504F170
:104740002800002101F094FE002818BF054660688B
:10475000C10608D504F12800012101F089FE0028D6
:1047600018BF05466068800603D44DB10120BDE83E
:10477000F08704F12800022101F07AFE2843F5D1E8
:104780000020BDE8F087012501271BE701256FE721
:104790005346D4F8B40000F440711A68B1F5407F74
:1047A00022F47C5103D1064A02EA10121143196027
:1047B0006FF31F30196E00250843186633E500BFFC
:1047C000CFFFFF002DE9F843002800F0FE800446EB
:1047D000804B186800F00F00884688420BD218689A
:1047E00020F00F0040EA08001860186800F00F0081
:1047F000404540F0EA802068CF4F41070AD5216943
:10480000BA6902F07002914204D9BA6922F07002CA
:104810001143B96101070AD56169FA6902F07002B2
:10482000914204D9FA6922F070021143F961C1067C
:104830000AD5A169FA6902F4E062914204D9FA69E1
:1048400022F4E0621143F96181060AD5E1693A6A0E
:1048500002F07002914204D93A6A22F070021143C8
:10486000396281070AD5E168BA6902F00F02914204
:1048700004D9BA6922F00F021143B961C10736D0D9
:10488000B86920F47061D4E9010211430328B961C9
:1048900005D0022807D1396889030DD495E039681D
:1048A000890109D491E00128396802D1C90503D4EE
:1048B0008BE0490740F189803969994621F0070169
:1048C00008433861FEF7B2FE064641F28835386982
:1048D00000F038006168B0EBC10F06D0FEF7A6FE0D
:1048E000801BA842F3D9032070E020684B46810763
:1048F0000AD5E168BA6902F00F02914204D2BA699E
:1049000022F00F021143B961196801F00F0141450E
:104910000AD9196821F00F0141EA080119601968E4
:1049200001F00F01414550D141070AD52169BA690B
:1049300002F07002914204D2BA6922F0700211436F
:10494000B96101070AD56169FA6902F07002914202
:1049500004D2FA6922F070021143F961C1060AD546
:10496000A169FA6902F4E062914204D2FA6922F480
:10497000E0621143F96180060AD5E069396A01F005
:104980007001884204D2396A21F07001084338620C
:1049900000F064F8B969C1F303212F4A515CBB6987
:1049A00003F00F03D25C01F01F0120FA01F102F0C5
:1049B0001F00184A21FA00F01060174A06480068E4
:1049C0001160BDE8F843FEF769BE012001B0BDE803
:1049D000F08300BF002000521000002080B500F0DE
:1049E0003DF80B490A68C2F3032209681A4B01F02B
:1049F0000F019A5C595C02F01F0220FA02F201F0EA
:104A00001F00044922FA00F0086003490A6080BDD3
:104A100018440258180000201400002080B5FFF749
:104A2000DDFF0C490C4A0968C1F30211515C01F029
:104A30001F01C84080BD00BF80B5FFF7CFFF05490B
:104A4000054A0968C1F30221515C01F01F01C84009
:104A500080BD00BF1C4402587089000836490869AF
:104A6000C0F3C20003280CD0022828D048BB086835
:104A70008006374858BF70470968C1F3C101C84074
:104A800070478A6A886AC0F3051CCB6A486B03F0DA
:104A90000103C0F3CC00BCF1000F10FB03F000EEEB
:104AA000100AB8EE400A0ED002F00302022A0CD01F
:104AB00072B9086880060ED49FED241A15E02048CC
:104AC00070471E487047002070479FED1F1A0CE08A
:104AD0009FED1C1A09E008681D4AC0F3C10022FAC4
:104AE00000F001EE100AB8EE411A02EE10CA9FED76
:104AF000193AB8EE422A086B6FF35F2081EE021A72
:104B000002EE100AB8EE422A086BC0F3462000EE0F
:104B1000032AB7EE000A013032EE000A21EE000A45
:104B200001EE100AB8EE411A80EE010ABCEEC00A8E
:104B300010EE100A704700BF0044025800093D0003
:104B400040787D010024744A20BCBE4B0024744C84
:104B50000090D00300000039F8B5002800F0B481BF
:104B600004460078D74EC00721D12078800740F155
:104B7000B180306910F03801B06A3CD0182908BF04
:104B80005FEA807037D0E068002831685CD021F09F
:104B9000190108433060FEF749FD054630684007BB
:104BA00043D4FEF743FD401B0228F7D9A0E130694A
:104BB00000F03801B06A102905D018290AD100F098
:104BC0000300022806D130688003CED56068002833
:104BD000CBD179E16068002847D0B0F5803F06D09E
:104BE000B0F5A02F30685ED140F48020306030688E
:104BF00040F480305DE030684007E06802D500286E
:104C000000F06281316821F0190108433060FEF73D
:104C10000DFD05463068400707D4FEF707FD401B31
:104C200002284FF00300F5D963E1FEF7F9FC41F2E9
:104C30000301884230D820697168402821F47C3112
:104C400045D141F4003044E021F001003060FEF72E
:104C5000EDFC0546306840073CD5FEF7E7FC401BFD
:104C600002284FF00300F5D943E1306820F480308A
:104C70003060306820F480203060FEF7D7FC0546B5
:104C8000306880037FF571AFFEF7D0FC401B6428CD
:104C90004FF00300F4D92CE1706820F0FE40216948
:104CA00040EA016015E020F480303060306820F484
:104CB00080203060FEF7BAFC0546306880033FF57F
:104CC00054AFFEF7B3FC401B6428F6D910E141EA6B
:104CD000003070602078C00653D5306900F038018C
:104CE000B06A082905D018290BD100F0030001286B
:104CF00007D13068C00519D5E069802840F0E4800C
:104D000014E0E0690028306827D040F0800030606F
:104D1000FEF78CFC05463068C00507D4FEF786FC1C
:104D2000401B02284FF00300F5D9E2E0FEF778FCC3
:104D300041F20301884208D8206A7168202821F0D6
:104D4000F8411BD141F080401AE0F06820F07C501F
:104D5000216A40EA0160F06013E020F080003060DA
:104D6000FEF764FC05463068C0050AD5FEF75EFC18
:104D7000401B02284FF00300F5D9BAE041EA8060F9
:104D800070602078000723D560690028706F0ED00E
:104D900040F001007067FEF749FC0546706F800720
:104DA00016D4FEF743FC401B0228F7D9A0E020F000
:104DB00001007067FEF73AFC0546706F800707D563
:104DC000FEF734FC401B02284FF00300F5D990E0B9
:104DD0002078800623D5A069002830680ED040F4E2
:104DE00080503060FEF722FC05463068800416D4FF
:104DF000FEF71CFC401B0228F7D979E020F4805014
:104E00003060FEF713FC05463068800407D5FEF7D6
:104E10000DFC401B02284FF00300F5D969E0207813
:104E2000400753D4656A002D00F00D81306900F011
:104E3000380018286ED1B16A012D306B44D001F0D2
:104E40000302A36A9A423FD1C1F30511E26A91427B
:104E50003AD10146226B6FF35F21013A914233D17F
:104E6000C0F34621626B013A91422DD1C0F3064155
:104E7000A26B013A914227D1C0F30660E16B013980
:104E8000884221D1706BC0F3CC00A16C814200F04C
:104E9000DA80F06A20F00100F062FEF7C7FB0546F9
:104EA000FEF7C4FBA842FBD0706B4FF6F871884345
:104EB000A16C40EAC1007063F06A40F00100F0624A
:104EC000C1E000BF00440258012012E0D6F80004FF
:104ED00040F48070C6F80004FEF7A8FB0546D6F83B
:104EE0000004C00507D4FEF7A1FB401B6428F6D9D7
:104EF000032001B0F0BDA06860B3012806D00528EA
:104F0000306F40F0A28040F004003067306F40F016
:104F10000100A0E0306820F080703060FEF786FB72
:104F2000022D05460AD1306880012CD5FEF77EFBA4
:104F3000401B02284FF00300F5D9DAE73068800102
:104F400040F18180FEF772FB401B02284FF0030006
:104F5000F4D9CEE7306F20F001003067306F20F0D9
:104F600004003067FEF762FB054641F28837306F78
:104F700080077FF557AFFEF759FB401BB8424FF053
:104F80000300F4D9B5E7B06A40F2F3318843A16A6F
:104F9000226B0843511E626B4FF47E4303EB4222A7
:104FA000E36A6FF35F2192B240EA0310B0625018D7
:104FB000A16B4FF4FE0202EB014101F4FE01084433
:104FC000E16B4FF0FE4202EB016101F0FE4108444B
:104FD00030634FF6F871F06A20F00100F062706BF8
:104FE0008843A16C40EAC1007063F06A20F00C00B5
:104FF000216C0843F062F06A20F00200616C084303
:10500000F062F06A40F48030F062F06A40F4003000
:10501000F062F06A40F48020F062F06A40F0010033
:10502000F062306840F080703060FEF7FFFA0446AE
:105030003068800107D4FEF7F9FA001B02284FF010
:105040000300F5D955E7002053E720F00100306751
:10505000306F20F004003067FEF7E8FA054641F2B1
:105060008837306F80073FF5DDAEFEF7DFFA401B73
:10507000B8424FF00300F4D93BE70000411E002086
:10508000B0EB116F01D001207047044A5160F0214C
:10509000034B1970072190601160704710E000E029
:1050A00023ED00E0704770477047000090F83C2007
:1050B000012A4FF0020233D070B50123AC4E80F8C4
:1050C0003C3080F83D20026842F480635468B3426B
:1050D000936802BF24F470044D682C43B2F1804FF2
:1050E00024F070050C6845EA040555600BD09A4C15
:1050F000A2421CBF994CA24205D0994CA2421CBFAF
:10510000984CA2420ED123F0800389681943916024
:105110000121002280F83D1080F83C20BDE870405D
:1051200010467047904CA242EDD0904CA24218BF5E
:10513000B242E8D0ECE700BF60B310B5044690F887
:105140003D0028B9002084F83C00204600F024F8F7
:10515000022084F83D00211D206801F0EDFA0120B5
:1051600084F8480084F83E0084F83F0084F840004A
:1051700084F8410084F8420084F8430084F8440035
:1051800084F8450084F8460084F8470084F83D0020
:10519000002010BD0120704710B586B0044601A85C
:1051A0001421FBF7CDF82068704988422ED06B4956
:1051B000884234D02E49884244D02E4988424AD071
:1051C000B0F1804F51D12C48016841F001010160DC
:1051D000016801F001010091009950F8081C41F0AC
:1051E000010140F8081C022150F8080C00F00100F1
:1051F000009000980120019002910021CDE9031157
:1052000001A905901D48FEF73FF92EE01A48816874
:1052100041F480318160806800F4803023E01648DA
:105220000168002241F0040101600021006800F0E3
:105230000400009000981E20FEF7B6FA1E20FEF72C
:10524000A5FA12E00C48016841F010010160006805
:1052500000F0100007E00848016841F020010160FB
:10526000006800F020000090009806B010BD00BF5C
:105270000010004000140040E844025800000258AA
:1052800090F83D1001291DD1022180F83D100168E0
:10529000B1F1804F0BD0304881421CBF2F48814272
:1052A00005D02F4881421CBF2E4881420CD188680E
:1052B000304A0240062A4FF0000018BFB2F5803F86
:1052C0000BD170470120704727488142EFD0274813
:1052D0008142ECD026488142E9D0086840F00100C4
:1052E00008600020704700BF90F83D10012921D1CF
:1052F000022180F83D100168C868B1F1804F40F08C
:105300000100C8600BD0144881421CBF1348814281
:1053100005D0134881421CBF124881420CD18868D5
:10532000144A0240062A4FF0000018BFB2F5803F31
:105330000BD17047012070470B488142EFD00B48DA
:105340008142ECD00A488142E9D0086840F001006F
:1053500008600020704700BF0004004000080040C3
:10536000000C0040001800400000014000400140D7
:10537000000401400700010001460068026A41F292
:1053800011131A4208D1026A40F244431A4203D16F
:10539000026822F0010202600122002081F83D2013
:1053A000704701460068C26841F2111322F0010201
:1053B000C260026A1A4208D1026A40F244431A42A9
:1053C00003D1026822F0010202600122002081F86C
:1053D0003D20704710B5044690F83C0001284FF07E
:1053E00002001FD00122404B84F83C2084F83D008D
:1053F000206882681A4082600A682AB1102A03D0A5
:10540000202A18BF302A0ED181683B4B1940114326
:1054100041F0070181600020012184F83D10002146
:1054200084F83C1010BD402A2AD0502A33D0602A7C
:105430003CD02E4B9A42E7D0B2F5805FEBD0B2F56C
:10544000005F3ED0B2F5801F18BFB2F1101FDBD055
:10545000274B9A42D8D0274B9A42D5D0702A40D1B8
:10546000D1E901C3C96843EA0C03826843EA012118
:1054700022F47F4211438160816841F07701C9E7DE
:105480004B68CA68194601F0DBF920681A4A81683E
:1054900011404731BEE74B68CA68194601F0D0F9A0
:1054A0002068154A816811405731B3E74B68CA68D4
:1054B000194601F0D6F920680F4A8168114067311A
:1054C000A8E7D1E901C3C96843EA0C03826843EA4B
:1054D000012122F47F4211438160816841F48041BF
:1054E00098E7012098E700BF8800CEFF4000100039
:1054F000200010003000100088FFCFFF7047000030
:10550000F8B504460068C768066906EA0705A907F2
:1055100013D56FF0020101610121217780698007B5
:1055200003D02046FFF7EAFF05E0204600F084F8AC
:10553000204600F082F800202077680715D5206803
:105540006FF00401016102212177806910F4407F2E
:1055500003D02046FFF7D2FF05E0204600F06CF8AC
:10556000204600F06AF800202077280714D520682C
:105570006FF00801016104212177C069800703D021
:105580002046FFF7BBFF05E0204600F055F8204617
:1055900000F053F800202077E80615D520686FF05A
:1055A0001001016108212177C06910F4407F03D008
:1055B0002046FFF7A3FF05E0204600F03DF8204617
:1055C00000F03BF800202077E80706D020686FF055
:1055D00001010161204600F031F817F0800718BF83
:1055E00016F4025005D02068114901612046FFF7EA
:1055F0005AFD47B116F4807005D020680D4901614D
:105600002046FFF74FFD680606D520686FF0400181
:105610000161204600F044F8A80600D4F8BD2068D7
:105620006FF0200101612046BDE8F840FFF73CBD66
:105630007FDFFFFFFFFEFFFF7047704710B5154982
:1056400000680968884218BF10BD13484FF0000C6D
:105650000168124C4A6AA36804EB8300C260581CBC
:105660000528C1F824C0A06012D1D4E9050108447E
:10567000E1690844C4F808C00321B0FBF1F04FF41D
:105680007A71484320600348FFF78BFE0120606079
:1056900010BD00BF6404002018040020200000207A
:1056A000704790F88410012901D1022112E02421D1
:1056B000C0F8881002681368116823F0005321F0C5
:1056C000010111600021416613602022C0F888208A
:1056D00080F884100846704770477047B0B504469C
:1056E00090F88400012801D10220B0BD012084F887
:1056F00084002420C4F8880020680568026822F02D
:1057000001020260826822F06062114381602046DB
:1057100001F0C0F8206805602020C4F8880000204F
:1057200084F88400B0BDB0B5044690F88400012828
:1057300001D10220B0BD012084F884002420C4F8E7
:10574000880020680568026822F001020260826811
:1057500022F0604211438160204601F09BF82068EE
:1057600005602020C4F88800002084F88400B0BDC3
:10577000704770477047000070B504460068C26902
:1057800040F60F05034601682A4253F808CF4AD075
:10579000BC4D0CEA050EBC4D0D4015EB0E054CD072
:1057A000D50718BF11F4807507D001250562D4F81C
:1057B000905045F00105C4F8905095070CF0010594
:1057C00008D53DB102260662D4F8906046F0040682
:1057D000C4F89060560708D53DB104250562D4F899
:1057E000905045F00205C4F8905015070CD501F013
:1057F00020055EEA050607D008260662D4F8906008
:1058000046F00806C4F89060160567D511F080666A
:1058100064D04FF400660662254655F8900F40F0BC
:10582000200028605CE0930607D501F020030CF00F
:1058300080555B1901D0616FE9E001EA0203E56E72
:10584000DE063CD5012D3AD110210162816849065E
:1058500000F18480B4F85C10B4F85E20B4F85E30D7
:10586000002B00F0E480891A0A0401D1DFE02068EF
:1058700050E8000F226820F4907042E80003002BEB
:10588000F5D18348226852E8022F2368024043E89A
:105890000226002EF6D12020C4F88C000020E066FD
:1058A0006067206850E8000F226820F0100042E88E
:1058B0000003002BF5D189B20220206799E0D602BF
:1058C00040F19C801CF4800600F098804FF4801119
:1058D00001622046BDE87040FFF74BBF04F1900520
:1058E0002868002800F0A38090060CD501F0200065
:1058F0000CF08051401806D0616F21B120468847D6
:10590000206800F108032868196800F0280001F0F9
:105910004001401800F08580204601F0ABF8206877
:105920008168490601D477E0206850E8020F2168B9
:1059300020F0400041E80202002AF5D1D4F88000AE
:10594000002869D051490165FCF7AEFD00286ED0F2
:10595000D4F88000016DBDE870400847D4F880207D
:1059600011684B689DB2002D61D0B4F85C108D4277
:105970005DD2A4F85E30D269B2F5807F01D132E009
:10598000206850E8000F216820F4807041E8000290
:10599000002AF5D1206850E8020F216820F00100AC
:1059A00041E80202002AF5D1206850E8020F216880
:1059B00020F0400041E80202002AF5D12020C4F87E
:1059C0008C000020E066206850E8000F216820F07D
:1059D000100041E80002002AF5D1D4F88000FCF75D
:1059E000DBFBB4F85C1002202067B4F85E00081AF4
:1059F00081B22046BDE87040FFF76EBE160617D58F
:105A000001F080060CF40005761911D0A16F71B178
:105A10002046BDE8704008472046BDE87040FFF7CB
:105A2000A9BE2046FFF7A6FE0020C4F8900070BD76
:105A30005B060AD410021BD511F0804018D0204616
:105A4000BDE87040FFF794BE206850E8000F216861
:105A500020F0400041E80002002AF5D12020C4F8DF
:105A600088000020A0672046BDE8704000F051B9D2
:105A7000D001DCD5B1F1FF3FD9DC2046BDE8704054
:105A8000FFF72BBE0100001020010004656A00082A
:105A9000FEFFFFEF10B5E0B10446D0F8880028B94A
:105AA000002084F88400204600F028F82420C4F860
:105AB00088002068A16A0268002922F001020260C1
:105AC00002D0204600F010FF204601F079FA0128AC
:105AD00001D1012010BD2068416821F4904141604E
